{
  "contractName": "Trajet",
  "abi": [
    {
      "inputs": [],
      "payable": false,
      "stateMutability": "nonpayable",
      "type": "constructor"
    },
    {
      "anonymous": false,
      "inputs": [
        {
          "indexed": false,
          "name": "id",
          "type": "uint256"
        },
        {
          "indexed": false,
          "name": "etat",
          "type": "uint256"
        }
      ],
      "name": "EtatOnChange",
      "type": "event"
    },
    {
      "anonymous": false,
      "inputs": [
        {
          "indexed": false,
          "name": "isWrong",
          "type": "bool"
        }
      ],
      "name": "SendBackErr",
      "type": "event"
    },
    {
      "constant": true,
      "inputs": [],
      "name": "getTrajetCount",
      "outputs": [
        {
          "name": "",
          "type": "uint256"
        }
      ],
      "payable": false,
      "stateMutability": "view",
      "type": "function"
    },
    {
      "constant": true,
      "inputs": [
        {
          "name": "_id",
          "type": "uint256"
        }
      ],
      "name": "getTrajetById",
      "outputs": [
        {
          "name": "",
          "type": "string"
        },
        {
          "name": "",
          "type": "string"
        },
        {
          "name": "",
          "type": "string"
        },
        {
          "name": "",
          "type": "string"
        },
        {
          "name": "",
          "type": "string"
        },
        {
          "name": "",
          "type": "uint256"
        },
        {
          "name": "",
          "type": "uint256"
        },
        {
          "name": "",
          "type": "address"
        },
        {
          "name": "",
          "type": "address"
        }
      ],
      "payable": false,
      "stateMutability": "view",
      "type": "function"
    },
    {
      "constant": true,
      "inputs": [
        {
          "name": "_id",
          "type": "uint256"
        }
      ],
      "name": "getProprietaireByIdOnChain",
      "outputs": [
        {
          "name": "proprietaire",
          "type": "address"
        }
      ],
      "payable": false,
      "stateMutability": "view",
      "type": "function"
    },
    {
      "constant": true,
      "inputs": [
        {
          "name": "_id",
          "type": "uint256"
        }
      ],
      "name": "getPassagerByIdOnChain",
      "outputs": [
        {
          "name": "passager",
          "type": "address"
        }
      ],
      "payable": false,
      "stateMutability": "view",
      "type": "function"
    },
    {
      "constant": false,
      "inputs": [
        {
          "name": "_id",
          "type": "uint256"
        },
        {
          "name": "_date",
          "type": "string"
        },
        {
          "name": "_depart",
          "type": "string"
        },
        {
          "name": "_destination",
          "type": "string"
        },
        {
          "name": "_peage",
          "type": "string"
        },
        {
          "name": "_tarif",
          "type": "string"
        },
        {
          "name": "_signatureDeProprietaire",
          "type": "bytes"
        },
        {
          "name": "_signatureDePassager",
          "type": "bytes"
        },
        {
          "name": "_proprietaire",
          "type": "address"
        },
        {
          "name": "_passger",
          "type": "address"
        }
      ],
      "name": "addTrajet",
      "outputs": [],
      "payable": false,
      "stateMutability": "nonpayable",
      "type": "function"
    },
    {
      "constant": false,
      "inputs": [
        {
          "name": "_id",
          "type": "uint256"
        },
        {
          "name": "_etatActuel",
          "type": "uint256"
        },
        {
          "name": "_newEtat",
          "type": "uint256"
        }
      ],
      "name": "changerEtat",
      "outputs": [
        {
          "name": "",
          "type": "bool"
        }
      ],
      "payable": false,
      "stateMutability": "nonpayable",
      "type": "function"
    }
  ],
  "bytecode": "0x608060405234801561001057600080fd5b50600080819055506113db806100276000396000f300608060405260043610610078576000357c0100000000000000000000000000000000000000000000000000000000900463ffffffff1680630344b96e1461007d5780632c1d6b73146100a857806367c7993e14610372578063731404c1146103df578063dee2198714610438578063ed7bbc441461068f575b600080fd5b34801561008957600080fd5b506100926106fc565b6040518082815260200191505060405180910390f35b3480156100b457600080fd5b506100d360048036038101908080359060200190929190505050610705565b6040518080602001806020018060200180602001806020018a81526020018981526020018873ffffffffffffffffffffffffffffffffffffffff1673ffffffffffffffffffffffffffffffffffffffff1681526020018773ffffffffffffffffffffffffffffffffffffffff1673ffffffffffffffffffffffffffffffffffffffff16815260200186810386528f818151815260200191508051906020019080838360005b83811015610193578082015181840152602081019050610178565b50505050905090810190601f1680156101c05780820380516001836020036101000a031916815260200191505b5086810385528e818151815260200191508051906020019080838360005b838110156101f95780820151818401526020810190506101de565b50505050905090810190601f1680156102265780820380516001836020036101000a031916815260200191505b5086810384528d818151815260200191508051906020019080838360005b8381101561025f578082015181840152602081019050610244565b50505050905090810190601f16801561028c5780820380516001836020036101000a031916815260200191505b5086810383528c818151815260200191508051906020019080838360005b838110156102c55780820151818401526020810190506102aa565b50505050905090810190601f1680156102f25780820380516001836020036101000a031916815260200191505b5086810382528b818151815260200191508051906020019080838360005b8381101561032b578082015181840152602081019050610310565b50505050905090810190601f1680156103585780820380516001836020036101000a031916815260200191505b509e50505050505050505050505050505060405180910390f35b34801561037e57600080fd5b5061039d60048036038101908080359060200190929190505050610c9a565b604051808273ffffffffffffffffffffffffffffffffffffffff1673ffffffffffffffffffffffffffffffffffffffff16815260200191505060405180910390f35b3480156103eb57600080fd5b5061041e600480360381019080803590602001909291908035906020019092919080359060200190929190505050610cd7565b604051808215151515815260200191505060405180910390f35b34801561044457600080fd5b5061068d60048036038101908080359060200190929190803590602001908201803590602001908080601f0160208091040260200160405190810160405280939291908181526020018383808284378201915050505050509192919290803590602001908201803590602001908080601f0160208091040260200160405190810160405280939291908181526020018383808284378201915050505050509192919290803590602001908201803590602001908080601f0160208091040260200160405190810160405280939291908181526020018383808284378201915050505050509192919290803590602001908201803590602001908080601f0160208091040260200160405190810160405280939291908181526020018383808284378201915050505050509192919290803590602001908201803590602001908080601f0160208091040260200160405190810160405280939291908181526020018383808284378201915050505050509192919290803590602001908201803590602001908080601f0160208091040260200160405190810160405280939291908181526020018383808284378201915050505050509192919290803590602001908201803590602001908080601f0160208091040260200160405190810160405280939291908181526020018383808284378201915050505050509192919290803573ffffffffffffffffffffffffffffffffffffffff169060200190929190803573ffffffffffffffffffffffffffffffffffffffff169060200190929190505050610fdf565b005b34801561069b57600080fd5b506106ba600480360381019080803590602001909291905050506111f9565b604051808273ffffffffffffffffffffffffffffffffffffffff1673ffffffffffffffffffffffffffffffffffffffff16815260200191505060405180910390f35b60008054905090565b606080606080606060008060008061071b611236565b6000806000600160008f8152602001908152602001600020610140604051908101604052908160008201548152602001600182018054600181600116156101000203166002900480601f0160208091040260200160405190810160405280929190818152602001828054600181600116156101000203166002900480156107e35780601f106107b8576101008083540402835291602001916107e3565b820191906000526020600020905b8154815290600101906020018083116107c657829003601f168201915b50505050508152602001600282018054600181600116156101000203166002900480601f0160208091040260200160405190810160405280929190818152602001828054600181600116156101000203166002900480156108855780601f1061085a57610100808354040283529160200191610885565b820191906000526020600020905b81548152906001019060200180831161086857829003601f168201915b50505050508152602001600382018054600181600116156101000203166002900480601f0160208091040260200160405190810160405280929190818152602001828054600181600116156101000203166002900480156109275780601f106108fc57610100808354040283529160200191610927565b820191906000526020600020905b81548152906001019060200180831161090a57829003601f168201915b50505050508152602001600482018054600181600116156101000203166002900480601f0160208091040260200160405190810160405280929190818152602001828054600181600116156101000203166002900480156109c95780601f1061099e576101008083540402835291602001916109c9565b820191906000526020600020905b8154815290600101906020018083116109ac57829003601f168201915b50505050508152602001600582018054600181600116156101000203166002900480601f016020809104026020016040519081016040528092919081815260200182805460018160011615610100020316600290048015610a6b5780601f10610a4057610100808354040283529160200191610a6b565b820191906000526020600020905b815481529060010190602001808311610a4e57829003601f168201915b50505050508152602001600682018054600181600116156101000203166002900480601f016020809104026020016040519081016040528092919081815260200182805460018160011615610100020316600290048015610b0d5780601f10610ae257610100808354040283529160200191610b0d565b820191906000526020600020905b815481529060010190602001808311610af057829003601f168201915b50505050508152602001600782018054600181600116156101000203166002900480601f016020809104026020016040519081016040528092919081815260200182805460018160011615610100020316600290048015610baf5780601f10610b8457610100808354040283529160200191610baf565b820191906000526020600020905b815481529060010190602001808311610b9257829003601f168201915b50505050508152602001600882015481526020016009820154815250509350836000015192506002600084815260200190815260200160002060009054906101000a900473ffffffffffffffffffffffffffffffffffffffff1691506003600084815260200190815260200160002060009054906101000a900473ffffffffffffffffffffffffffffffffffffffff16905083602001518460400151856060015186608001518760a0015188610100015189610120015188888898508797508696508595508494509c509c509c509c509c509c509c509c509c50505050509193959799909294969850565b60006002600083815260200190815260200160002060009054906101000a900473ffffffffffffffffffffffffffffffffffffffff169050919050565b6000806000806000600160008981526020019081526020016000209350836000015492506002600084815260200190815260200160002060009054906101000a900473ffffffffffffffffffffffffffffffffffffffff1691506003600084815260200190815260200160002060009054906101000a900473ffffffffffffffffffffffffffffffffffffffff1690506001861480610d765750600486145b15610e32578173ffffffffffffffffffffffffffffffffffffffff163373ffffffffffffffffffffffffffffffffffffffff1614158015610de357508073ffffffffffffffffffffffffffffffffffffffff163373ffffffffffffffffffffffffffffffffffffffff1614155b15610e2d577fca6044b98d4217bdc281b5e24f17580969fa44ef5e5062b1b27cc1b7467aa0d16001604051808215151515815260200191505060405180910390a160009450610fd4565b610f36565b6002861415610eba578073ffffffffffffffffffffffffffffffffffffffff163373ffffffffffffffffffffffffffffffffffffffff16141515610eb5577fca6044b98d4217bdc281b5e24f17580969fa44ef5e5062b1b27cc1b7467aa0d16001604051808215151515815260200191505060405180910390a160009450610fd4565b610f35565b8173ffffffffffffffffffffffffffffffffffffffff163373ffffffffffffffffffffffffffffffffffffffff16141515610f34577fca6044b98d4217bdc281b5e24f17580969fa44ef5e5062b1b27cc1b7467aa0d16001604051808215151515815260200191505060405180910390a160009450610fd4565b5b5b8684600901541415610f93578584600901819055507fc5cd13c40faf43de7dc6a7bb9248d8ad03bba1c65c1524268922b8e1878353f88887604051808381526020018281526020019250505060405180910390a160019450610fd4565b7fca6044b98d4217bdc281b5e24f17580969fa44ef5e5062b1b27cc1b7467aa0d16001604051808215151515815260200191505060405180910390a1600094505b505050509392505050565b610fe7611236565b6101406040519081016040528060005481526020018b81526020018a81526020018981526020018881526020018781526020018681526020018581526020014281526020016000815250905080600160008d815260200190815260200160002060008201518160000155602082015181600101908051906020019061106d92919061128a565b50604082015181600201908051906020019061108a92919061128a565b5060608201518160030190805190602001906110a792919061128a565b5060808201518160040190805190602001906110c492919061128a565b5060a08201518160050190805190602001906110e192919061128a565b5060c08201518160060190805190602001906110fe92919061130a565b5060e082015181600701908051906020019061111b92919061130a565b506101008201518160080155610120820151816009015590505082600260008054815260200190815260200160002060006101000a81548173ffffffffffffffffffffffffffffffffffffffff021916908373ffffffffffffffffffffffffffffffffffffffff16021790555081600360008054815260200190815260200160002060006101000a81548173ffffffffffffffffffffffffffffffffffffffff021916908373ffffffffffffffffffffffffffffffffffffffff16021790555060008081548092919060010191905055505050505050505050505050565b60006003600083815260200190815260200160002060009054906101000a900473ffffffffffffffffffffffffffffffffffffffff169050919050565b61014060405190810160405280600081526020016060815260200160608152602001606081526020016060815260200160608152602001606081526020016060815260200160008152602001600081525090565b828054600181600116156101000203166002900490600052602060002090601f016020900481019282601f106112cb57805160ff19168380011785556112f9565b828001600101855582156112f9579182015b828111156112f85782518255916020019190600101906112dd565b5b509050611306919061138a565b5090565b828054600181600116156101000203166002900490600052602060002090601f016020900481019282601f1061134b57805160ff1916838001178555611379565b82800160010185558215611379579182015b8281111561137857825182559160200191906001019061135d565b5b509050611386919061138a565b5090565b6113ac91905b808211156113a8576000816000905550600101611390565b5090565b905600a165627a7a7230582017b8d9111b0b9872c04c5ec8e4f85fc014954f8fc6f540f4a8d9393b4f4441000029",
  "source": "pragma solidity ^0.4.24;\r\ncontract Trajet {\r\n  struct TrajetSelectionne {\r\n    //id of trajet on chain\r\n    uint id;\r\n    string date;\r\n    string depart;\r\n    string destination;\r\n    string peage;\r\n    string tarif;\r\n    bytes signatureDeProprietaire;\r\n    bytes signatureDePassager;\r\n    uint dateAjoute;\r\n    //Etat:\r\n    //0 = le trajet a été signé par prorpiétaire et passger,\r\n    //1 = Le trajet est en cours,\r\n    //2 = le passager a payé le trajet\r\n    //3 = le propriétaire a validé le trajet = ce trajet est terminé\r\n    //4 = le passger ou le propriétaire a signalé un probleme sur le trajet\r\n    uint etat;\r\n  }\r\n  uint trajetCount;\r\n\r\n//id(in local database) => trajet\r\n  mapping (uint => TrajetSelectionne) trajets;\r\n  //TrajetSelectionne[] trajets;\r\n  //id on chain\r\n  mapping (uint => address) proprietaireDeTrajet;\r\n  mapping (uint => address) passagerDeTrajet;\r\n  event EtatOnChange(uint id, uint etat);\r\n  event SendBackErr(bool isWrong);\r\n\r\n  function Trajet() {\r\n    trajetCount = 0;\r\n  }\r\n\r\n  function getTrajetCount() view returns(uint){\r\n    return trajetCount;\r\n  }\r\n\r\n  function getTrajetById(uint _id) view returns(string, string, string, string, string, uint, uint, address, address) {\r\n    TrajetSelectionne memory t = trajets[_id];\r\n    uint idTrajet = t.id;\r\n    address proprietaire = proprietaireDeTrajet[idTrajet];\r\n    address passager = passagerDeTrajet[idTrajet];\r\n    return(t.date, t.depart, t.destination, t.peage, t.tarif, t.dateAjoute, t.etat, proprietaire, passager);\r\n  }\r\n\r\n  function getProprietaireByIdOnChain(uint _id) view returns(address proprietaire) {\r\n    proprietaire = proprietaireDeTrajet[_id];\r\n  }\r\n\r\n  function getPassagerByIdOnChain(uint _id) view returns(address passager) {\r\n    passager = passagerDeTrajet[_id];\r\n  }\r\n\r\n  function addTrajet(uint _id, string _date, string _depart, string _destination, string _peage, string _tarif, bytes _signatureDeProprietaire, bytes _signatureDePassager, address _proprietaire, address _passger) {\r\n    TrajetSelectionne memory t = TrajetSelectionne(trajetCount, _date, _depart, _destination, _peage, _tarif, _signatureDeProprietaire, _signatureDePassager, now, 0);\r\n    trajets[_id] = t;\r\n    proprietaireDeTrajet[trajetCount] = _proprietaire;\r\n    passagerDeTrajet[trajetCount] = _passger;\r\n    trajetCount++;\r\n  }\r\n\r\n  function changerEtat(uint _id, uint _etatActuel, uint _newEtat) returns(bool) {\r\n    TrajetSelectionne storage t = trajets[_id];\r\n    uint idTrajet = t.id;\r\n    address proprietaire = proprietaireDeTrajet[idTrajet];\r\n    address passager = passagerDeTrajet[idTrajet];\r\n    if(_newEtat == 1 || _newEtat == 4){\r\n      //require(msg.sender == proprietaire || msg.sender == passager);\r\n      if(msg.sender != proprietaire && msg.sender != passager){\r\n        emit SendBackErr(true);\r\n        return false;\r\n      }\r\n    }else if(_newEtat == 2){\r\n      //require(msg.sender == passager);\r\n      if(msg.sender != passager){\r\n        emit SendBackErr(true);\r\n        return false;\r\n      }\r\n    }else{\r\n      //require(msg.sender == proprietaire);\r\n      if(msg.sender != proprietaire){\r\n        emit SendBackErr(true);\r\n        return false;\r\n      }\r\n    }\r\n\r\n    if(t.etat == _etatActuel){\r\n      t.etat = _newEtat;\r\n      emit EtatOnChange(_id, _newEtat);\r\n      return true;\r\n    } else {\r\n      emit SendBackErr(true);\r\n      return false;\r\n    }\r\n  }\r\n}\r\n",
  "sourcePath": "C:\\wamp64\\www\\Projet-de-plateforme-de-covoiturage\\Developpement\\contracts\\Trajet.sol",
  "compiler": {
    "name": "solc",
    "version": "0.4.24+commit.e67f0147.Emscripten.clang"
  },
  "schemaVersion": "2.0.1",
  "updatedAt": "2018-10-25T13:57:11.885Z"
}