{
  "contractName": "Trajet",
  "abi": [
    {
      "inputs": [],
      "payable": false,
      "stateMutability": "nonpayable",
      "type": "constructor"
    },
    {
      "anonymous": false,
      "inputs": [
        {
          "indexed": false,
          "name": "id",
          "type": "uint256"
        },
        {
          "indexed": false,
          "name": "etat",
          "type": "uint256"
        }
      ],
      "name": "EtatOnChange",
      "type": "event"
    },
    {
      "anonymous": false,
      "inputs": [
        {
          "indexed": false,
          "name": "isWrong",
          "type": "bool"
        }
      ],
      "name": "SendBackErr",
      "type": "event"
    },
    {
      "constant": true,
      "inputs": [],
      "name": "getTrajetCount",
      "outputs": [
        {
          "name": "",
          "type": "uint256"
        }
      ],
      "payable": false,
      "stateMutability": "view",
      "type": "function"
    },
    {
      "constant": true,
      "inputs": [
        {
          "name": "_id",
          "type": "uint256"
        }
      ],
      "name": "getTrajetByIdBDD",
      "outputs": [
        {
          "name": "",
          "type": "string"
        },
        {
          "name": "",
          "type": "string"
        },
        {
          "name": "",
          "type": "string"
        },
        {
          "name": "",
          "type": "string"
        },
        {
          "name": "",
          "type": "uint256"
        },
        {
          "name": "",
          "type": "uint256"
        },
        {
          "name": "",
          "type": "address"
        },
        {
          "name": "",
          "type": "address"
        }
      ],
      "payable": false,
      "stateMutability": "view",
      "type": "function"
    },
    {
      "constant": true,
      "inputs": [
        {
          "name": "_id",
          "type": "uint256"
        }
      ],
      "name": "getTrajetByIdOnChain",
      "outputs": [
        {
          "name": "",
          "type": "string"
        },
        {
          "name": "",
          "type": "string"
        },
        {
          "name": "",
          "type": "string"
        },
        {
          "name": "",
          "type": "string"
        },
        {
          "name": "",
          "type": "uint256"
        },
        {
          "name": "",
          "type": "uint256"
        },
        {
          "name": "",
          "type": "address"
        },
        {
          "name": "",
          "type": "address"
        }
      ],
      "payable": false,
      "stateMutability": "view",
      "type": "function"
    },
    {
      "constant": true,
      "inputs": [
        {
          "name": "_id",
          "type": "uint256"
        }
      ],
      "name": "getProprietaireByIdOnChain",
      "outputs": [
        {
          "name": "proprietaire",
          "type": "address"
        }
      ],
      "payable": false,
      "stateMutability": "view",
      "type": "function"
    },
    {
      "constant": true,
      "inputs": [
        {
          "name": "_id",
          "type": "uint256"
        }
      ],
      "name": "getPassagerByIdOnChain",
      "outputs": [
        {
          "name": "passager",
          "type": "address"
        }
      ],
      "payable": false,
      "stateMutability": "view",
      "type": "function"
    },
    {
      "constant": false,
      "inputs": [
        {
          "name": "_id",
          "type": "uint256"
        },
        {
          "name": "_date",
          "type": "string"
        },
        {
          "name": "_depart",
          "type": "string"
        },
        {
          "name": "_destination",
          "type": "string"
        },
        {
          "name": "_tarif",
          "type": "string"
        },
        {
          "name": "_proprietaire",
          "type": "address"
        },
        {
          "name": "_passger",
          "type": "address"
        }
      ],
      "name": "addTrajet",
      "outputs": [],
      "payable": false,
      "stateMutability": "nonpayable",
      "type": "function"
    },
    {
      "constant": false,
      "inputs": [
        {
          "name": "_id",
          "type": "uint256"
        },
        {
          "name": "_etatActuel",
          "type": "uint256"
        },
        {
          "name": "_newEtat",
          "type": "uint256"
        }
      ],
      "name": "changerEtat",
      "outputs": [
        {
          "name": "",
          "type": "bool"
        }
      ],
      "payable": false,
      "stateMutability": "nonpayable",
      "type": "function"
    }
  ],
  "bytecode": "0x608060405234801561001057600080fd5b50600080819055506115ae806100276000396000f300608060405260043610610083576000357c0100000000000000000000000000000000000000000000000000000000900463ffffffff1680630344b96e14610088578063288138ab146100b357806367c7993e14610238578063731404c1146102a5578063740865fa146102fe578063d95806501461055c578063ed7bbc44146107ba575b600080fd5b34801561009457600080fd5b5061009d610827565b6040518082815260200191505060405180910390f35b3480156100bf57600080fd5b5061023660048036038101908080359060200190929190803590602001908201803590602001908080601f0160208091040260200160405190810160405280939291908181526020018383808284378201915050505050509192919290803590602001908201803590602001908080601f0160208091040260200160405190810160405280939291908181526020018383808284378201915050505050509192919290803590602001908201803590602001908080601f0160208091040260200160405190810160405280939291908181526020018383808284378201915050505050509192919290803590602001908201803590602001908080601f0160208091040260200160405190810160405280939291908181526020018383808284378201915050505050509192919290803573ffffffffffffffffffffffffffffffffffffffff169060200190929190803573ffffffffffffffffffffffffffffffffffffffff169060200190929190505050610830565b005b34801561024457600080fd5b50610263600480360381019080803590602001909291905050506109e4565b604051808273ffffffffffffffffffffffffffffffffffffffff1673ffffffffffffffffffffffffffffffffffffffff16815260200191505060405180910390f35b3480156102b157600080fd5b506102e4600480360381019080803590602001909291908035906020019092919080359060200190929190505050610a21565b604051808215151515815260200191505060405180910390f35b34801561030a57600080fd5b5061032960048036038101908080359060200190929190505050610d3c565b60405180806020018060200180602001806020018981526020018881526020018773ffffffffffffffffffffffffffffffffffffffff1673ffffffffffffffffffffffffffffffffffffffff1681526020018673ffffffffffffffffffffffffffffffffffffffff1673ffffffffffffffffffffffffffffffffffffffff16815260200185810385528d818151815260200191508051906020019080838360005b838110156103e55780820151818401526020810190506103ca565b50505050905090810190601f1680156104125780820380516001836020036101000a031916815260200191505b5085810384528c818151815260200191508051906020019080838360005b8381101561044b578082015181840152602081019050610430565b50505050905090810190601f1680156104785780820380516001836020036101000a031916815260200191505b5085810383528b818151815260200191508051906020019080838360005b838110156104b1578082015181840152602081019050610496565b50505050905090810190601f1680156104de5780820380516001836020036101000a031916815260200191505b5085810382528a818151815260200191508051906020019080838360005b838110156105175780820151818401526020810190506104fc565b50505050905090810190601f1680156105445780820380516001836020036101000a031916815260200191505b509c5050505050505050505050505060405180910390f35b34801561056857600080fd5b50610587600480360381019080803590602001909291905050506110c6565b60405180806020018060200180602001806020018981526020018881526020018773ffffffffffffffffffffffffffffffffffffffff1673ffffffffffffffffffffffffffffffffffffffff1681526020018673ffffffffffffffffffffffffffffffffffffffff1673ffffffffffffffffffffffffffffffffffffffff16815260200185810385528d818151815260200191508051906020019080838360005b83811015610643578082015181840152602081019050610628565b50505050905090810190601f1680156106705780820380516001836020036101000a031916815260200191505b5085810384528c818151815260200191508051906020019080838360005b838110156106a957808201518184015260208101905061068e565b50505050905090810190601f1680156106d65780820380516001836020036101000a031916815260200191505b5085810383528b818151815260200191508051906020019080838360005b8381101561070f5780820151818401526020810190506106f4565b50505050905090810190601f16801561073c5780820380516001836020036101000a031916815260200191505b5085810382528a818151815260200191508051906020019080838360005b8381101561077557808201518184015260208101905061075a565b50505050905090810190601f1680156107a25780820380516001836020036101000a031916815260200191505b509c5050505050505050505050505060405180910390f35b3480156107c657600080fd5b506107e560048036038101908080359060200190929190505050611469565b604051808273ffffffffffffffffffffffffffffffffffffffff1673ffffffffffffffffffffffffffffffffffffffff16815260200191505060405180910390f35b60008054905090565b6108386114a6565b60c06040519081016040528088815260200187815260200186815260200185815260200142815260200160008152509050806001600080548152602001908152602001600020600082015181600001908051906020019061089a9291906114dd565b5060208201518160010190805190602001906108b79291906114dd565b5060408201518160020190805190602001906108d49291906114dd565b5060608201518160030190805190602001906108f19291906114dd565b506080820151816004015560a0820151816005015590505082600260008054815260200190815260200160002060006101000a81548173ffffffffffffffffffffffffffffffffffffffff021916908373ffffffffffffffffffffffffffffffffffffffff16021790555081600360008054815260200190815260200160002060006101000a81548173ffffffffffffffffffffffffffffffffffffffff021916908373ffffffffffffffffffffffffffffffffffffffff160217905550600054600460008a81526020019081526020016000208190555060008081548092919060010191905055505050505050505050565b60006002600083815260200190815260200160002060009054906101000a900473ffffffffffffffffffffffffffffffffffffffff169050919050565b6000806000806000600460008981526020019081526020016000205493506001600085815260200190815260200160002092506002600085815260200190815260200160002060009054906101000a900473ffffffffffffffffffffffffffffffffffffffff1691506003600085815260200190815260200160002060009054906101000a900473ffffffffffffffffffffffffffffffffffffffff1690506001861480610acf5750600486145b15610b8b578173ffffffffffffffffffffffffffffffffffffffff163373ffffffffffffffffffffffffffffffffffffffff1614158015610b3c57508073ffffffffffffffffffffffffffffffffffffffff163373ffffffffffffffffffffffffffffffffffffffff1614155b15610b86577fca6044b98d4217bdc281b5e24f17580969fa44ef5e5062b1b27cc1b7467aa0d16001604051808215151515815260200191505060405180910390a160009450610d31565b610c8f565b6002861415610c13578073ffffffffffffffffffffffffffffffffffffffff163373ffffffffffffffffffffffffffffffffffffffff16141515610c0e577fca6044b98d4217bdc281b5e24f17580969fa44ef5e5062b1b27cc1b7467aa0d16001604051808215151515815260200191505060405180910390a160009450610d31565b610c8e565b8173ffffffffffffffffffffffffffffffffffffffff163373ffffffffffffffffffffffffffffffffffffffff16141515610c8d577fca6044b98d4217bdc281b5e24f17580969fa44ef5e5062b1b27cc1b7467aa0d16001604051808215151515815260200191505060405180910390a160009450610d31565b5b5b8683600501541415610cf0578583600501819055507fc5cd13c40faf43de7dc6a7bb9248d8ad03bba1c65c1524268922b8e1878353f8888460050154604051808381526020018281526020019250505060405180910390a160019450610d31565b7fca6044b98d4217bdc281b5e24f17580969fa44ef5e5062b1b27cc1b7467aa0d16001604051808215151515815260200191505060405180910390a1600094505b505050509392505050565b606080606080600080600080610d506114a6565b600080600160008d815260200190815260200160002060c06040519081016040529081600082018054600181600116156101000203166002900480601f016020809104026020016040519081016040528092919081815260200182805460018160011615610100020316600290048015610e0b5780601f10610de057610100808354040283529160200191610e0b565b820191906000526020600020905b815481529060010190602001808311610dee57829003601f168201915b50505050508152602001600182018054600181600116156101000203166002900480601f016020809104026020016040519081016040528092919081815260200182805460018160011615610100020316600290048015610ead5780601f10610e8257610100808354040283529160200191610ead565b820191906000526020600020905b815481529060010190602001808311610e9057829003601f168201915b50505050508152602001600282018054600181600116156101000203166002900480601f016020809104026020016040519081016040528092919081815260200182805460018160011615610100020316600290048015610f4f5780601f10610f2457610100808354040283529160200191610f4f565b820191906000526020600020905b815481529060010190602001808311610f3257829003601f168201915b50505050508152602001600382018054600181600116156101000203166002900480601f016020809104026020016040519081016040528092919081815260200182805460018160011615610100020316600290048015610ff15780601f10610fc657610100808354040283529160200191610ff1565b820191906000526020600020905b815481529060010190602001808311610fd457829003601f168201915b50505050508152602001600482015481526020016005820154815250509250600260008d815260200190815260200160002060009054906101000a900473ffffffffffffffffffffffffffffffffffffffff169150600360008d815260200190815260200160002060009054906101000a900473ffffffffffffffffffffffffffffffffffffffff169050826000015183602001518460400151856060015186608001518760a0015187878797508696508595508494509a509a509a509a509a509a509a509a50505050919395975091939597565b60608060608060008060008060006110dc6114a6565b600080600460008e81526020019081526020016000205493506001600085815260200190815260200160002060c06040519081016040529081600082018054600181600116156101000203166002900480601f0160208091040260200160405190810160405280929190818152602001828054600181600116156101000203166002900480156111ad5780601f10611182576101008083540402835291602001916111ad565b820191906000526020600020905b81548152906001019060200180831161119057829003601f168201915b50505050508152602001600182018054600181600116156101000203166002900480601f01602080910402602001604051908101604052809291908181526020018280546001816001161561010002031660029004801561124f5780601f106112245761010080835404028352916020019161124f565b820191906000526020600020905b81548152906001019060200180831161123257829003601f168201915b50505050508152602001600282018054600181600116156101000203166002900480601f0160208091040260200160405190810160405280929190818152602001828054600181600116156101000203166002900480156112f15780601f106112c6576101008083540402835291602001916112f1565b820191906000526020600020905b8154815290600101906020018083116112d457829003601f168201915b50505050508152602001600382018054600181600116156101000203166002900480601f0160208091040260200160405190810160405280929190818152602001828054600181600116156101000203166002900480156113935780601f1061136857610100808354040283529160200191611393565b820191906000526020600020905b81548152906001019060200180831161137657829003601f168201915b505050505081526020016004820154815260200160058201548152505092506002600085815260200190815260200160002060009054906101000a900473ffffffffffffffffffffffffffffffffffffffff1691506003600085815260200190815260200160002060009054906101000a900473ffffffffffffffffffffffffffffffffffffffff169050826000015183602001518460400151856060015186608001518760a0015187878797508696508595508494509b509b509b509b509b509b509b509b5050505050919395975091939597565b60006003600083815260200190815260200160002060009054906101000a900473ffffffffffffffffffffffffffffffffffffffff169050919050565b60c0604051908101604052806060815260200160608152602001606081526020016060815260200160008152602001600081525090565b828054600181600116156101000203166002900490600052602060002090601f016020900481019282601f1061151e57805160ff191683800117855561154c565b8280016001018555821561154c579182015b8281111561154b578251825591602001919060010190611530565b5b509050611559919061155d565b5090565b61157f91905b8082111561157b576000816000905550600101611563565b5090565b905600a165627a7a723058208a62d39ce36c515eb73fa4d2772d8adf9af96258c1f4b5e14d1819e9089157490029",
  "source": "pragma solidity ^0.4.24;\r\ncontract Trajet {\r\n  struct TrajetSelectionne {\r\n    string date;\r\n    string depart;\r\n    string destination;\r\n    string tarif;\r\n    uint dateAjoute;\r\n    //Etat:\r\n    //0 = le trajet a été signé par prorpiétaire et passger,\r\n    //1 = Le trajet est en cours,\r\n    //2 = le passager a payé le trajet\r\n    //3 = le propriétaire a validé le trajet = ce trajet est terminé\r\n    //4 = le passger ou le propriétaire a signalé un probleme sur le trajet\r\n    uint etat;\r\n  }\r\n  uint trajetCount;\r\n\r\n//id(on chain) => trajet\r\n  mapping (uint => TrajetSelectionne) trajets;\r\n  //TrajetSelectionne[] trajets;\r\n  //id on chain\r\n  mapping (uint => address) proprietaireDeTrajet;\r\n  mapping (uint => address) passagerDeTrajet;\r\n  mapping (uint => uint) idBDDToIdOnChain;\r\n  event EtatOnChange(uint id, uint etat);\r\n  event SendBackErr(bool isWrong);\r\n\r\n  function Trajet() {\r\n    trajetCount = 0;\r\n  }\r\n\r\n  function getTrajetCount() view returns(uint){\r\n    return trajetCount;\r\n  }\r\n\r\n  function getTrajetByIdBDD(uint _id) view returns(string, string, string, string, uint, uint, address, address) {\r\n    uint idOnChain = idBDDToIdOnChain[_id];\r\n    TrajetSelectionne memory t = trajets[idOnChain];\r\n    address proprietaire = proprietaireDeTrajet[idOnChain];\r\n    address passager = passagerDeTrajet[idOnChain];\r\n    return(t.date, t.depart, t.destination, t.tarif, t.dateAjoute, t.etat, proprietaire, passager);\r\n  }\r\n\r\n  function getTrajetByIdOnChain(uint _id) view returns(string, string, string, string, uint, uint, address, address) {\r\n    TrajetSelectionne memory t = trajets[_id];\r\n    address proprietaire = proprietaireDeTrajet[_id];\r\n    address passager = passagerDeTrajet[_id];\r\n    return(t.date, t.depart, t.destination, t.tarif, t.dateAjoute, t.etat, proprietaire, passager);\r\n  }\r\n\r\n  function getProprietaireByIdOnChain(uint _id) view returns(address proprietaire) {\r\n    proprietaire = proprietaireDeTrajet[_id];\r\n  }\r\n\r\n  function getPassagerByIdOnChain(uint _id) view returns(address passager) {\r\n    passager = passagerDeTrajet[_id];\r\n  }\r\n\r\n  function addTrajet(uint _id, string _date, string _depart, string _destination, string _tarif, address _proprietaire, address _passger) {\r\n    TrajetSelectionne memory t = TrajetSelectionne(_date, _depart, _destination,  _tarif, now, 0);\r\n    trajets[trajetCount] = t;\r\n    proprietaireDeTrajet[trajetCount] = _proprietaire;\r\n    passagerDeTrajet[trajetCount] = _passger;\r\n    idBDDToIdOnChain[_id] = trajetCount;\r\n    trajetCount++;\r\n  }\r\n\r\n  function changerEtat(uint _id, uint _etatActuel, uint _newEtat) returns(bool) {\r\n    uint idOnChain = idBDDToIdOnChain[_id];\r\n    TrajetSelectionne storage t = trajets[idOnChain];\r\n\r\n    address proprietaire = proprietaireDeTrajet[idOnChain];\r\n    address passager = passagerDeTrajet[idOnChain];\r\n    if(_newEtat == 1 || _newEtat == 4){\r\n      //require(msg.sender == proprietaire || msg.sender == passager);\r\n      if(msg.sender != proprietaire && msg.sender != passager){\r\n        emit SendBackErr(true);\r\n        return false;\r\n      }\r\n    }else if(_newEtat == 2){\r\n      //require(msg.sender == passager);\r\n      if(msg.sender != passager){\r\n        emit SendBackErr(true);\r\n        return false;\r\n      }\r\n    }else{\r\n      //require(msg.sender == proprietaire);\r\n      if(msg.sender != proprietaire){\r\n        emit SendBackErr(true);\r\n        return false;\r\n      }\r\n    }\r\n\r\n    if(t.etat == _etatActuel){\r\n      t.etat = _newEtat;\r\n      emit EtatOnChange(_id, t.etat);\r\n      return true;\r\n    } else {\r\n      emit SendBackErr(true);\r\n      return false;\r\n    }\r\n  }\r\n}\r\n",
  "sourcePath": "C:\\wamp64\\www\\Projet-de-plateforme-de-covoiturage\\Developpement\\contracts\\Trajet.sol",
  "compiler": {
    "name": "solc",
    "version": "0.4.24+commit.e67f0147.Emscripten.clang"
  },
  "schemaVersion": "2.0.1",
  "updatedAt": "2018-10-29T17:00:48.744Z"
}