{
  "contractName": "Trajet",
  "abi": [
    {
      "inputs": [],
      "payable": false,
      "stateMutability": "nonpayable",
      "type": "constructor"
    },
    {
      "anonymous": false,
      "inputs": [
        {
          "indexed": false,
          "name": "id",
          "type": "uint256"
        },
        {
          "indexed": false,
          "name": "etat",
          "type": "uint256"
        }
      ],
      "name": "EtatOnChange",
      "type": "event"
    },
    {
      "anonymous": false,
      "inputs": [
        {
          "indexed": false,
          "name": "isWrong",
          "type": "bool"
        }
      ],
      "name": "SendBackErr",
      "type": "event"
    },
    {
      "constant": true,
      "inputs": [],
      "name": "getTrajetCount",
      "outputs": [
        {
          "name": "",
          "type": "uint256"
        }
      ],
      "payable": false,
      "stateMutability": "view",
      "type": "function"
    },
    {
      "constant": true,
      "inputs": [
        {
          "name": "_id",
          "type": "uint256"
        }
      ],
      "name": "getTrajetById",
      "outputs": [
        {
          "name": "",
          "type": "string"
        },
        {
          "name": "",
          "type": "string"
        },
        {
          "name": "",
          "type": "string"
        },
        {
          "name": "",
          "type": "string"
        },
        {
          "name": "",
          "type": "uint256"
        },
        {
          "name": "",
          "type": "uint256"
        },
        {
          "name": "",
          "type": "address"
        },
        {
          "name": "",
          "type": "address"
        }
      ],
      "payable": false,
      "stateMutability": "view",
      "type": "function"
    },
    {
      "constant": true,
      "inputs": [
        {
          "name": "_id",
          "type": "uint256"
        }
      ],
      "name": "getProprietaireByIdOnChain",
      "outputs": [
        {
          "name": "proprietaire",
          "type": "address"
        }
      ],
      "payable": false,
      "stateMutability": "view",
      "type": "function"
    },
    {
      "constant": true,
      "inputs": [
        {
          "name": "_id",
          "type": "uint256"
        }
      ],
      "name": "getPassagerByIdOnChain",
      "outputs": [
        {
          "name": "passager",
          "type": "address"
        }
      ],
      "payable": false,
      "stateMutability": "view",
      "type": "function"
    },
    {
      "constant": false,
      "inputs": [
        {
          "name": "_id",
          "type": "uint256"
        },
        {
          "name": "_date",
          "type": "string"
        },
        {
          "name": "_depart",
          "type": "string"
        },
        {
          "name": "_destination",
          "type": "string"
        },
        {
          "name": "_tarif",
          "type": "string"
        },
        {
          "name": "_proprietaire",
          "type": "address"
        },
        {
          "name": "_passger",
          "type": "address"
        }
      ],
      "name": "addTrajet",
      "outputs": [],
      "payable": false,
      "stateMutability": "nonpayable",
      "type": "function"
    },
    {
      "constant": false,
      "inputs": [
        {
          "name": "_id",
          "type": "uint256"
        },
        {
          "name": "_etatActuel",
          "type": "uint256"
        },
        {
          "name": "_newEtat",
          "type": "uint256"
        }
      ],
      "name": "changerEtat",
      "outputs": [
        {
          "name": "",
          "type": "bool"
        }
      ],
      "payable": false,
      "stateMutability": "nonpayable",
      "type": "function"
    }
  ],
  "bytecode": "0x608060405234801561001057600080fd5b5060008081905550610fa1806100276000396000f300608060405260043610610078576000357c0100000000000000000000000000000000000000000000000000000000900463ffffffff1680630344b96e1461007d578063288138ab146100a85780632c1d6b731461022d57806367c7993e1461048b578063731404c1146104f8578063ed7bbc4414610551575b600080fd5b34801561008957600080fd5b506100926105be565b6040518082815260200191505060405180910390f35b3480156100b457600080fd5b5061022b60048036038101908080359060200190929190803590602001908201803590602001908080601f0160208091040260200160405190810160405280939291908181526020018383808284378201915050505050509192919290803590602001908201803590602001908080601f0160208091040260200160405190810160405280939291908181526020018383808284378201915050505050509192919290803590602001908201803590602001908080601f0160208091040260200160405190810160405280939291908181526020018383808284378201915050505050509192919290803590602001908201803590602001908080601f0160208091040260200160405190810160405280939291908181526020018383808284378201915050505050509192919290803573ffffffffffffffffffffffffffffffffffffffff169060200190929190803573ffffffffffffffffffffffffffffffffffffffff1690602001909291905050506105c7565b005b34801561023957600080fd5b5061025860048036038101908080359060200190929190505050610772565b60405180806020018060200180602001806020018981526020018881526020018773ffffffffffffffffffffffffffffffffffffffff1673ffffffffffffffffffffffffffffffffffffffff1681526020018673ffffffffffffffffffffffffffffffffffffffff1673ffffffffffffffffffffffffffffffffffffffff16815260200185810385528d818151815260200191508051906020019080838360005b838110156103145780820151818401526020810190506102f9565b50505050905090810190601f1680156103415780820380516001836020036101000a031916815260200191505b5085810384528c818151815260200191508051906020019080838360005b8381101561037a57808201518184015260208101905061035f565b50505050905090810190601f1680156103a75780820380516001836020036101000a031916815260200191505b5085810383528b818151815260200191508051906020019080838360005b838110156103e05780820151818401526020810190506103c5565b50505050905090810190601f16801561040d5780820380516001836020036101000a031916815260200191505b5085810382528a818151815260200191508051906020019080838360005b8381101561044657808201518184015260208101905061042b565b50505050905090810190601f1680156104735780820380516001836020036101000a031916815260200191505b509c5050505050505050505050505060405180910390f35b34801561049757600080fd5b506104b660048036038101908080359060200190929190505050610b10565b604051808273ffffffffffffffffffffffffffffffffffffffff1673ffffffffffffffffffffffffffffffffffffffff16815260200191505060405180910390f35b34801561050457600080fd5b50610537600480360381019080803590602001909291908035906020019092919080359060200190929190505050610b4d565b604051808215151515815260200191505060405180910390f35b34801561055d57600080fd5b5061057c60048036038101908080359060200190929190505050610e55565b604051808273ffffffffffffffffffffffffffffffffffffffff1673ffffffffffffffffffffffffffffffffffffffff16815260200191505060405180910390f35b60008054905090565b6105cf610e92565b60e06040519081016040528060005481526020018881526020018781526020018681526020018581526020014281526020016000815250905080600160008a8152602001908152602001600020600082015181600001556020820151816001019080519060200190610642929190610ed0565b50604082015181600201908051906020019061065f929190610ed0565b50606082015181600301908051906020019061067c929190610ed0565b506080820151816004019080519060200190610699929190610ed0565b5060a0820151816005015560c0820151816006015590505082600260008054815260200190815260200160002060006101000a81548173ffffffffffffffffffffffffffffffffffffffff021916908373ffffffffffffffffffffffffffffffffffffffff16021790555081600360008054815260200190815260200160002060006101000a81548173ffffffffffffffffffffffffffffffffffffffff021916908373ffffffffffffffffffffffffffffffffffffffff16021790555060008081548092919060010191905055505050505050505050565b606080606080600080600080610786610e92565b6000806000600160008e815260200190815260200160002060e0604051908101604052908160008201548152602001600182018054600181600116156101000203166002900480601f01602080910402602001604051908101604052809291908181526020018280546001816001161561010002031660029004801561084d5780601f106108225761010080835404028352916020019161084d565b820191906000526020600020905b81548152906001019060200180831161083057829003601f168201915b50505050508152602001600282018054600181600116156101000203166002900480601f0160208091040260200160405190810160405280929190818152602001828054600181600116156101000203166002900480156108ef5780601f106108c4576101008083540402835291602001916108ef565b820191906000526020600020905b8154815290600101906020018083116108d257829003601f168201915b50505050508152602001600382018054600181600116156101000203166002900480601f0160208091040260200160405190810160405280929190818152602001828054600181600116156101000203166002900480156109915780601f1061096657610100808354040283529160200191610991565b820191906000526020600020905b81548152906001019060200180831161097457829003601f168201915b50505050508152602001600482018054600181600116156101000203166002900480601f016020809104026020016040519081016040528092919081815260200182805460018160011615610100020316600290048015610a335780601f10610a0857610100808354040283529160200191610a33565b820191906000526020600020905b815481529060010190602001808311610a1657829003601f168201915b50505050508152602001600582015481526020016006820154815250509350836000015192506002600084815260200190815260200160002060009054906101000a900473ffffffffffffffffffffffffffffffffffffffff1691506003600084815260200190815260200160002060009054906101000a900473ffffffffffffffffffffffffffffffffffffffff16905083602001518460400151856060015186608001518760a001518860c0015187878797508696508595508494509b509b509b509b509b509b509b509b5050505050919395975091939597565b60006002600083815260200190815260200160002060009054906101000a900473ffffffffffffffffffffffffffffffffffffffff169050919050565b6000806000806000600160008981526020019081526020016000209350836000015492506002600084815260200190815260200160002060009054906101000a900473ffffffffffffffffffffffffffffffffffffffff1691506003600084815260200190815260200160002060009054906101000a900473ffffffffffffffffffffffffffffffffffffffff1690506001861480610bec5750600486145b15610ca8578173ffffffffffffffffffffffffffffffffffffffff163373ffffffffffffffffffffffffffffffffffffffff1614158015610c5957508073ffffffffffffffffffffffffffffffffffffffff163373ffffffffffffffffffffffffffffffffffffffff1614155b15610ca3577fca6044b98d4217bdc281b5e24f17580969fa44ef5e5062b1b27cc1b7467aa0d16001604051808215151515815260200191505060405180910390a160009450610e4a565b610dac565b6002861415610d30578073ffffffffffffffffffffffffffffffffffffffff163373ffffffffffffffffffffffffffffffffffffffff16141515610d2b577fca6044b98d4217bdc281b5e24f17580969fa44ef5e5062b1b27cc1b7467aa0d16001604051808215151515815260200191505060405180910390a160009450610e4a565b610dab565b8173ffffffffffffffffffffffffffffffffffffffff163373ffffffffffffffffffffffffffffffffffffffff16141515610daa577fca6044b98d4217bdc281b5e24f17580969fa44ef5e5062b1b27cc1b7467aa0d16001604051808215151515815260200191505060405180910390a160009450610e4a565b5b5b8684600601541415610e09578584600601819055507fc5cd13c40faf43de7dc6a7bb9248d8ad03bba1c65c1524268922b8e1878353f88887604051808381526020018281526020019250505060405180910390a160019450610e4a565b7fca6044b98d4217bdc281b5e24f17580969fa44ef5e5062b1b27cc1b7467aa0d16001604051808215151515815260200191505060405180910390a1600094505b505050509392505050565b60006003600083815260200190815260200160002060009054906101000a900473ffffffffffffffffffffffffffffffffffffffff169050919050565b60e060405190810160405280600081526020016060815260200160608152602001606081526020016060815260200160008152602001600081525090565b828054600181600116156101000203166002900490600052602060002090601f016020900481019282601f10610f1157805160ff1916838001178555610f3f565b82800160010185558215610f3f579182015b82811115610f3e578251825591602001919060010190610f23565b5b509050610f4c9190610f50565b5090565b610f7291905b80821115610f6e576000816000905550600101610f56565b5090565b905600a165627a7a72305820a65f82496e11ef2f9eeb58fe87d57696e9529ac284f29154c165ea0776b0b50a0029",
  "source": "pragma solidity ^0.4.24;\r\ncontract Trajet {\r\n  struct TrajetSelectionne {\r\n    //id of trajet on chain\r\n    uint id;\r\n    string date;\r\n    string depart;\r\n    string destination;\r\n    string tarif;\r\n    uint dateAjoute;\r\n    //Etat:\r\n    //0 = le trajet a été signé par prorpiétaire et passger,\r\n    //1 = Le trajet est en cours,\r\n    //2 = le passager a payé le trajet\r\n    //3 = le propriétaire a validé le trajet = ce trajet est terminé\r\n    //4 = le passger ou le propriétaire a signalé un probleme sur le trajet\r\n    uint etat;\r\n  }\r\n  uint trajetCount;\r\n\r\n//id(in local database) => trajet\r\n  mapping (uint => TrajetSelectionne) trajets;\r\n  //TrajetSelectionne[] trajets;\r\n  //id on chain\r\n  mapping (uint => address) proprietaireDeTrajet;\r\n  mapping (uint => address) passagerDeTrajet;\r\n  event EtatOnChange(uint id, uint etat);\r\n  event SendBackErr(bool isWrong);\r\n\r\n  function Trajet() {\r\n    trajetCount = 0;\r\n  }\r\n\r\n  function getTrajetCount() view returns(uint){\r\n    return trajetCount;\r\n  }\r\n\r\n  function getTrajetById(uint _id) view returns(string, string, string, string, uint, uint, address, address) {\r\n    TrajetSelectionne memory t = trajets[_id];\r\n    uint idTrajet = t.id;\r\n    address proprietaire = proprietaireDeTrajet[idTrajet];\r\n    address passager = passagerDeTrajet[idTrajet];\r\n    return(t.date, t.depart, t.destination, t.tarif, t.dateAjoute, t.etat, proprietaire, passager);\r\n  }\r\n\r\n  function getProprietaireByIdOnChain(uint _id) view returns(address proprietaire) {\r\n    proprietaire = proprietaireDeTrajet[_id];\r\n  }\r\n\r\n  function getPassagerByIdOnChain(uint _id) view returns(address passager) {\r\n    passager = passagerDeTrajet[_id];\r\n  }\r\n\r\n  function addTrajet(uint _id, string _date, string _depart, string _destination, string _tarif, address _proprietaire, address _passger) {\r\n    TrajetSelectionne memory t = TrajetSelectionne(trajetCount, _date, _depart, _destination,  _tarif, now, 0);\r\n    trajets[_id] = t;\r\n    proprietaireDeTrajet[trajetCount] = _proprietaire;\r\n    passagerDeTrajet[trajetCount] = _passger;\r\n    trajetCount++;\r\n  }\r\n\r\n  function changerEtat(uint _id, uint _etatActuel, uint _newEtat) returns(bool) {\r\n    TrajetSelectionne storage t = trajets[_id];\r\n    uint idTrajet = t.id;\r\n    address proprietaire = proprietaireDeTrajet[idTrajet];\r\n    address passager = passagerDeTrajet[idTrajet];\r\n    if(_newEtat == 1 || _newEtat == 4){\r\n      //require(msg.sender == proprietaire || msg.sender == passager);\r\n      if(msg.sender != proprietaire && msg.sender != passager){\r\n        emit SendBackErr(true);\r\n        return false;\r\n      }\r\n    }else if(_newEtat == 2){\r\n      //require(msg.sender == passager);\r\n      if(msg.sender != passager){\r\n        emit SendBackErr(true);\r\n        return false;\r\n      }\r\n    }else{\r\n      //require(msg.sender == proprietaire);\r\n      if(msg.sender != proprietaire){\r\n        emit SendBackErr(true);\r\n        return false;\r\n      }\r\n    }\r\n\r\n    if(t.etat == _etatActuel){\r\n      t.etat = _newEtat;\r\n      emit EtatOnChange(_id, _newEtat);\r\n      return true;\r\n    } else {\r\n      emit SendBackErr(true);\r\n      return false;\r\n    }\r\n  }\r\n}\r\n",
  "sourcePath": "C:\\wamp64\\www\\Projet-de-plateforme-de-covoiturage\\Developpement\\contracts\\Trajet.sol",
  "compiler": {
    "name": "solc",
    "version": "0.4.24+commit.e67f0147.Emscripten.clang"
  },
  "schemaVersion": "2.0.1",
  "updatedAt": "2018-10-26T14:47:47.008Z"
}