{
  "contractName": "Trajet",
  "abi": [
    {
      "inputs": [],
      "payable": false,
      "stateMutability": "nonpayable",
      "type": "constructor"
    },
    {
      "anonymous": false,
      "inputs": [
        {
          "indexed": false,
          "name": "id",
          "type": "uint256"
        },
        {
          "indexed": false,
          "name": "etat",
          "type": "uint256"
        }
      ],
      "name": "EtatOnChange",
      "type": "event"
    },
    {
      "constant": true,
      "inputs": [],
      "name": "getTrajetCount",
      "outputs": [
        {
          "name": "",
          "type": "uint256"
        }
      ],
      "payable": false,
      "stateMutability": "view",
      "type": "function"
    },
    {
      "constant": true,
      "inputs": [
        {
          "name": "_id",
          "type": "uint256"
        }
      ],
      "name": "getTrajetById",
      "outputs": [
        {
          "name": "",
          "type": "string"
        },
        {
          "name": "",
          "type": "string"
        },
        {
          "name": "",
          "type": "string"
        },
        {
          "name": "",
          "type": "string"
        },
        {
          "name": "",
          "type": "string"
        },
        {
          "name": "",
          "type": "uint256"
        },
        {
          "name": "",
          "type": "uint256"
        },
        {
          "name": "",
          "type": "address"
        },
        {
          "name": "",
          "type": "address"
        }
      ],
      "payable": false,
      "stateMutability": "view",
      "type": "function"
    },
    {
      "constant": true,
      "inputs": [
        {
          "name": "_id",
          "type": "uint256"
        }
      ],
      "name": "getProprietaireByIdOnChain",
      "outputs": [
        {
          "name": "proprietaire",
          "type": "address"
        }
      ],
      "payable": false,
      "stateMutability": "view",
      "type": "function"
    },
    {
      "constant": true,
      "inputs": [
        {
          "name": "_id",
          "type": "uint256"
        }
      ],
      "name": "getPassagerByIdOnChain",
      "outputs": [
        {
          "name": "passager",
          "type": "address"
        }
      ],
      "payable": false,
      "stateMutability": "view",
      "type": "function"
    },
    {
      "constant": false,
      "inputs": [
        {
          "name": "_id",
          "type": "uint256"
        },
        {
          "name": "_date",
          "type": "string"
        },
        {
          "name": "_depart",
          "type": "string"
        },
        {
          "name": "_destination",
          "type": "string"
        },
        {
          "name": "_peage",
          "type": "string"
        },
        {
          "name": "_tarif",
          "type": "string"
        },
        {
          "name": "_signatureDeProprietaire",
          "type": "bytes"
        },
        {
          "name": "_signatureDePassager",
          "type": "bytes"
        },
        {
          "name": "_proprietaire",
          "type": "address"
        },
        {
          "name": "_passger",
          "type": "address"
        }
      ],
      "name": "addTrajet",
      "outputs": [],
      "payable": false,
      "stateMutability": "nonpayable",
      "type": "function"
    },
    {
      "constant": false,
      "inputs": [
        {
          "name": "_id",
          "type": "uint256"
        },
        {
          "name": "_etatActuel",
          "type": "uint256"
        },
        {
          "name": "_newEtat",
          "type": "uint256"
        }
      ],
      "name": "changerEtat",
      "outputs": [],
      "payable": false,
      "stateMutability": "nonpayable",
      "type": "function"
    }
  ],
  "bytecode": "0x608060405234801561001057600080fd5b50600080819055506112b4806100276000396000f300608060405260043610610078576000357c0100000000000000000000000000000000000000000000000000000000900463ffffffff1680630344b96e1461007d5780632c1d6b73146100a857806367c7993e14610372578063731404c1146103df578063dee2198714610420578063ed7bbc4414610677575b600080fd5b34801561008957600080fd5b506100926106e4565b6040518082815260200191505060405180910390f35b3480156100b457600080fd5b506100d3600480360381019080803590602001909291905050506106ed565b6040518080602001806020018060200180602001806020018a81526020018981526020018873ffffffffffffffffffffffffffffffffffffffff1673ffffffffffffffffffffffffffffffffffffffff1681526020018773ffffffffffffffffffffffffffffffffffffffff1673ffffffffffffffffffffffffffffffffffffffff16815260200186810386528f818151815260200191508051906020019080838360005b83811015610193578082015181840152602081019050610178565b50505050905090810190601f1680156101c05780820380516001836020036101000a031916815260200191505b5086810385528e818151815260200191508051906020019080838360005b838110156101f95780820151818401526020810190506101de565b50505050905090810190601f1680156102265780820380516001836020036101000a031916815260200191505b5086810384528d818151815260200191508051906020019080838360005b8381101561025f578082015181840152602081019050610244565b50505050905090810190601f16801561028c5780820380516001836020036101000a031916815260200191505b5086810383528c818151815260200191508051906020019080838360005b838110156102c55780820151818401526020810190506102aa565b50505050905090810190601f1680156102f25780820380516001836020036101000a031916815260200191505b5086810382528b818151815260200191508051906020019080838360005b8381101561032b578082015181840152602081019050610310565b50505050905090810190601f1680156103585780820380516001836020036101000a031916815260200191505b509e50505050505050505050505050505060405180910390f35b34801561037e57600080fd5b5061039d60048036038101908080359060200190929190505050610c82565b604051808273ffffffffffffffffffffffffffffffffffffffff1673ffffffffffffffffffffffffffffffffffffffff16815260200191505060405180910390f35b3480156103eb57600080fd5b5061041e600480360381019080803590602001909291908035906020019092919080359060200190929190505050610cbf565b005b34801561042c57600080fd5b5061067560048036038101908080359060200190929190803590602001908201803590602001908080601f0160208091040260200160405190810160405280939291908181526020018383808284378201915050505050509192919290803590602001908201803590602001908080601f0160208091040260200160405190810160405280939291908181526020018383808284378201915050505050509192919290803590602001908201803590602001908080601f0160208091040260200160405190810160405280939291908181526020018383808284378201915050505050509192919290803590602001908201803590602001908080601f0160208091040260200160405190810160405280939291908181526020018383808284378201915050505050509192919290803590602001908201803590602001908080601f0160208091040260200160405190810160405280939291908181526020018383808284378201915050505050509192919290803590602001908201803590602001908080601f0160208091040260200160405190810160405280939291908181526020018383808284378201915050505050509192919290803590602001908201803590602001908080601f0160208091040260200160405190810160405280939291908181526020018383808284378201915050505050509192919290803573ffffffffffffffffffffffffffffffffffffffff169060200190929190803573ffffffffffffffffffffffffffffffffffffffff169060200190929190505050610eb8565b005b34801561068357600080fd5b506106a2600480360381019080803590602001909291905050506110d2565b604051808273ffffffffffffffffffffffffffffffffffffffff1673ffffffffffffffffffffffffffffffffffffffff16815260200191505060405180910390f35b60008054905090565b606080606080606060008060008061070361110f565b6000806000600160008f8152602001908152602001600020610140604051908101604052908160008201548152602001600182018054600181600116156101000203166002900480601f0160208091040260200160405190810160405280929190818152602001828054600181600116156101000203166002900480156107cb5780601f106107a0576101008083540402835291602001916107cb565b820191906000526020600020905b8154815290600101906020018083116107ae57829003601f168201915b50505050508152602001600282018054600181600116156101000203166002900480601f01602080910402602001604051908101604052809291908181526020018280546001816001161561010002031660029004801561086d5780601f106108425761010080835404028352916020019161086d565b820191906000526020600020905b81548152906001019060200180831161085057829003601f168201915b50505050508152602001600382018054600181600116156101000203166002900480601f01602080910402602001604051908101604052809291908181526020018280546001816001161561010002031660029004801561090f5780601f106108e45761010080835404028352916020019161090f565b820191906000526020600020905b8154815290600101906020018083116108f257829003601f168201915b50505050508152602001600482018054600181600116156101000203166002900480601f0160208091040260200160405190810160405280929190818152602001828054600181600116156101000203166002900480156109b15780601f10610986576101008083540402835291602001916109b1565b820191906000526020600020905b81548152906001019060200180831161099457829003601f168201915b50505050508152602001600582018054600181600116156101000203166002900480601f016020809104026020016040519081016040528092919081815260200182805460018160011615610100020316600290048015610a535780601f10610a2857610100808354040283529160200191610a53565b820191906000526020600020905b815481529060010190602001808311610a3657829003601f168201915b50505050508152602001600682018054600181600116156101000203166002900480601f016020809104026020016040519081016040528092919081815260200182805460018160011615610100020316600290048015610af55780601f10610aca57610100808354040283529160200191610af5565b820191906000526020600020905b815481529060010190602001808311610ad857829003601f168201915b50505050508152602001600782018054600181600116156101000203166002900480601f016020809104026020016040519081016040528092919081815260200182805460018160011615610100020316600290048015610b975780601f10610b6c57610100808354040283529160200191610b97565b820191906000526020600020905b815481529060010190602001808311610b7a57829003601f168201915b50505050508152602001600882015481526020016009820154815250509350836000015192506002600084815260200190815260200160002060009054906101000a900473ffffffffffffffffffffffffffffffffffffffff1691506003600084815260200190815260200160002060009054906101000a900473ffffffffffffffffffffffffffffffffffffffff16905083602001518460400151856060015186608001518760a0015188610100015189610120015188888898508797508696508595508494509c509c509c509c509c509c509c509c509c50505050509193959799909294969850565b60006002600083815260200190815260200160002060009054906101000a900473ffffffffffffffffffffffffffffffffffffffff169050919050565b600080600080600160008881526020019081526020016000209350836000015492506002600084815260200190815260200160002060009054906101000a900473ffffffffffffffffffffffffffffffffffffffff1691506003600084815260200190815260200160002060009054906101000a900473ffffffffffffffffffffffffffffffffffffffff1690506001851480610d5c5750600485145b15610dd6578173ffffffffffffffffffffffffffffffffffffffff163373ffffffffffffffffffffffffffffffffffffffff161480610dc657508073ffffffffffffffffffffffffffffffffffffffff163373ffffffffffffffffffffffffffffffffffffffff16145b1515610dd157600080fd5b610e5a565b6002851415610e1e578073ffffffffffffffffffffffffffffffffffffffff163373ffffffffffffffffffffffffffffffffffffffff16141515610e1957600080fd5b610e59565b8173ffffffffffffffffffffffffffffffffffffffff163373ffffffffffffffffffffffffffffffffffffffff16141515610e5857600080fd5b5b5b8584600901541415610eaf578484600901819055507fc5cd13c40faf43de7dc6a7bb9248d8ad03bba1c65c1524268922b8e1878353f88786604051808381526020018281526020019250505060405180910390a15b50505050505050565b610ec061110f565b6101406040519081016040528060005481526020018b81526020018a81526020018981526020018881526020018781526020018681526020018581526020014281526020016000815250905080600160008d8152602001908152602001600020600082015181600001556020820151816001019080519060200190610f46929190611163565b506040820151816002019080519060200190610f63929190611163565b506060820151816003019080519060200190610f80929190611163565b506080820151816004019080519060200190610f9d929190611163565b5060a0820151816005019080519060200190610fba929190611163565b5060c0820151816006019080519060200190610fd79291906111e3565b5060e0820151816007019080519060200190610ff49291906111e3565b506101008201518160080155610120820151816009015590505082600260008054815260200190815260200160002060006101000a81548173ffffffffffffffffffffffffffffffffffffffff021916908373ffffffffffffffffffffffffffffffffffffffff16021790555081600360008054815260200190815260200160002060006101000a81548173ffffffffffffffffffffffffffffffffffffffff021916908373ffffffffffffffffffffffffffffffffffffffff16021790555060008081548092919060010191905055505050505050505050505050565b60006003600083815260200190815260200160002060009054906101000a900473ffffffffffffffffffffffffffffffffffffffff169050919050565b61014060405190810160405280600081526020016060815260200160608152602001606081526020016060815260200160608152602001606081526020016060815260200160008152602001600081525090565b828054600181600116156101000203166002900490600052602060002090601f016020900481019282601f106111a457805160ff19168380011785556111d2565b828001600101855582156111d2579182015b828111156111d15782518255916020019190600101906111b6565b5b5090506111df9190611263565b5090565b828054600181600116156101000203166002900490600052602060002090601f016020900481019282601f1061122457805160ff1916838001178555611252565b82800160010185558215611252579182015b82811115611251578251825591602001919060010190611236565b5b50905061125f9190611263565b5090565b61128591905b80821115611281576000816000905550600101611269565b5090565b905600a165627a7a723058208d0e9b4be4b5c40310917b87320f6c53c4c24c4bdcb3ffbc4603b1d64c155f430029",
  "source": "pragma solidity ^0.4.24;\r\ncontract Trajet {\r\n  struct TrajetSelectionne {\r\n    //id of trajet on chain\r\n    uint id;\r\n    string date;\r\n    string depart;\r\n    string destination;\r\n    string peage;\r\n    string tarif;\r\n    bytes signatureDeProprietaire;\r\n    bytes signatureDePassager;\r\n    uint dateAjoute;\r\n    //Etat:\r\n    //0 = le trajet a été signé par prorpiétaire et passger,\r\n    //1 = Le trajet est en cours,\r\n    //2 = le passager a payé le trajet\r\n    //3 = le propriétaire a validé le trajet = ce trajet est terminé\r\n    //4 = le passger ou le propriétaire a signalé un probleme sur le trajet\r\n    uint etat;\r\n  }\r\n  uint trajetCount;\r\n\r\n//id(in local database) => trajet\r\n  mapping (uint => TrajetSelectionne) trajets;\r\n  //TrajetSelectionne[] trajets;\r\n  //id on chain\r\n  mapping (uint => address) proprietaireDeTrajet;\r\n  mapping (uint => address) passagerDeTrajet;\r\n  event EtatOnChange(uint id, uint etat);\r\n\r\n  function Trajet() {\r\n    trajetCount = 0;\r\n  }\r\n\r\n  function getTrajetCount() view returns(uint){\r\n    return trajetCount;\r\n  }\r\n\r\n  function getTrajetById(uint _id) view returns(string, string, string, string, string, uint, uint, address, address) {\r\n    TrajetSelectionne memory t = trajets[_id];\r\n    uint idTrajet = t.id;\r\n    address proprietaire = proprietaireDeTrajet[idTrajet];\r\n    address passager = passagerDeTrajet[idTrajet];\r\n    return(t.date, t.depart, t.destination, t.peage, t.tarif, t.dateAjoute, t.etat, proprietaire, passager);\r\n  }\r\n\r\n  function getProprietaireByIdOnChain(uint _id) view returns(address proprietaire) {\r\n    proprietaire = proprietaireDeTrajet[_id];\r\n  }\r\n\r\n  function getPassagerByIdOnChain(uint _id) view returns(address passager) {\r\n    passager = passagerDeTrajet[_id];\r\n  }\r\n\r\n  function addTrajet(uint _id, string _date, string _depart, string _destination, string _peage, string _tarif, bytes _signatureDeProprietaire, bytes _signatureDePassager, address _proprietaire, address _passger) {\r\n    TrajetSelectionne memory t = TrajetSelectionne(trajetCount, _date, _depart, _destination, _peage, _tarif, _signatureDeProprietaire, _signatureDePassager, now, 0);\r\n    trajets[_id] = t;\r\n    proprietaireDeTrajet[trajetCount] = _proprietaire;\r\n    passagerDeTrajet[trajetCount] = _passger;\r\n    trajetCount++;\r\n  }\r\n\r\n  function changerEtat(uint _id, uint _etatActuel, uint _newEtat) {\r\n    TrajetSelectionne storage t = trajets[_id];\r\n    uint idTrajet = t.id;\r\n    address proprietaire = proprietaireDeTrajet[idTrajet];\r\n    address passager = passagerDeTrajet[idTrajet];\r\n    if(_newEtat == 1 || _newEtat == 4){\r\n      require(msg.sender == proprietaire || msg.sender == passager);\r\n    }else if(_newEtat == 2){\r\n      require(msg.sender == passager);\r\n    }else{\r\n      require(msg.sender == proprietaire);\r\n    }\r\n\r\n    if(t.etat == _etatActuel){\r\n      t.etat = _newEtat;\r\n      emit EtatOnChange(_id, _newEtat);\r\n    }\r\n  }\r\n}\r\n",
  "sourcePath": "C:\\Users\\xwang89\\OneDrive - DXC Production\\Dev\\Projet de plateforme de covoiturage\\Developpement\\contracts\\Trajet.sol",
  "compiler": {
    "name": "solc",
    "version": "0.4.24+commit.e67f0147.Emscripten.clang"
  },
  "schemaVersion": "2.0.1",
  "updatedAt": "2018-10-23T14:46:21.750Z"
}