{
  "contractName": "Trajet",
  "abi": [
    {
      "inputs": [],
      "payable": false,
      "stateMutability": "nonpayable",
      "type": "constructor"
    },
    {
      "anonymous": false,
      "inputs": [
        {
          "indexed": false,
          "name": "id",
          "type": "uint256"
        },
        {
          "indexed": false,
          "name": "etat",
          "type": "uint256"
        }
      ],
      "name": "EtatOnChange",
      "type": "event"
    },
    {
      "constant": true,
      "inputs": [],
      "name": "getTrajetCount",
      "outputs": [
        {
          "name": "",
          "type": "uint256"
        }
      ],
      "payable": false,
      "stateMutability": "view",
      "type": "function"
    },
    {
      "constant": true,
      "inputs": [
        {
          "name": "_id",
          "type": "uint256"
        }
      ],
      "name": "getTrajetById",
      "outputs": [
        {
          "name": "",
          "type": "string"
        },
        {
          "name": "",
          "type": "string"
        },
        {
          "name": "",
          "type": "string"
        },
        {
          "name": "",
          "type": "string"
        },
        {
          "name": "",
          "type": "uint256"
        },
        {
          "name": "",
          "type": "uint256"
        },
        {
          "name": "",
          "type": "address"
        },
        {
          "name": "",
          "type": "address"
        }
      ],
      "payable": false,
      "stateMutability": "view",
      "type": "function"
    },
    {
      "constant": true,
      "inputs": [
        {
          "name": "_id",
          "type": "uint256"
        }
      ],
      "name": "getProprietaireByIdOnChain",
      "outputs": [
        {
          "name": "proprietaire",
          "type": "address"
        }
      ],
      "payable": false,
      "stateMutability": "view",
      "type": "function"
    },
    {
      "constant": true,
      "inputs": [
        {
          "name": "_id",
          "type": "uint256"
        }
      ],
      "name": "getPassagerByIdOnChain",
      "outputs": [
        {
          "name": "passager",
          "type": "address"
        }
      ],
      "payable": false,
      "stateMutability": "view",
      "type": "function"
    },
    {
      "constant": false,
      "inputs": [
        {
          "name": "_id",
          "type": "uint256"
        },
        {
          "name": "_date",
          "type": "string"
        },
        {
          "name": "_depart",
          "type": "string"
        },
        {
          "name": "_destination",
          "type": "string"
        },
        {
          "name": "_peage",
          "type": "string"
        },
        {
          "name": "_signatureDeProprietaire",
          "type": "bytes"
        },
        {
          "name": "_signatureDePassager",
          "type": "bytes"
        },
        {
          "name": "_proprietaire",
          "type": "address"
        },
        {
          "name": "_passger",
          "type": "address"
        }
      ],
      "name": "addTrajet",
      "outputs": [],
      "payable": false,
      "stateMutability": "nonpayable",
      "type": "function"
    },
    {
      "constant": false,
      "inputs": [
        {
          "name": "_id",
          "type": "uint256"
        },
        {
          "name": "_etatActuel",
          "type": "uint256"
        },
        {
          "name": "_newEtat",
          "type": "uint256"
        }
      ],
      "name": "changerEtat",
      "outputs": [],
      "payable": false,
      "stateMutability": "nonpayable",
      "type": "function"
    }
  ],
  "bytecode": "0x608060405234801561001057600080fd5b5060008081905550611125806100276000396000f300608060405260043610610078576000357c0100000000000000000000000000000000000000000000000000000000900463ffffffff1680630344b96e1461007d5780632c1d6b73146100a85780633bbd91341461030657806367c7993e14610517578063731404c114610584578063ed7bbc44146105c5575b600080fd5b34801561008957600080fd5b50610092610632565b6040518082815260200191505060405180910390f35b3480156100b457600080fd5b506100d36004803603810190808035906020019092919050505061063b565b60405180806020018060200180602001806020018981526020018881526020018773ffffffffffffffffffffffffffffffffffffffff1673ffffffffffffffffffffffffffffffffffffffff1681526020018673ffffffffffffffffffffffffffffffffffffffff1673ffffffffffffffffffffffffffffffffffffffff16815260200185810385528d818151815260200191508051906020019080838360005b8381101561018f578082015181840152602081019050610174565b50505050905090810190601f1680156101bc5780820380516001836020036101000a031916815260200191505b5085810384528c818151815260200191508051906020019080838360005b838110156101f55780820151818401526020810190506101da565b50505050905090810190601f1680156102225780820380516001836020036101000a031916815260200191505b5085810383528b818151815260200191508051906020019080838360005b8381101561025b578082015181840152602081019050610240565b50505050905090810190601f1680156102885780820380516001836020036101000a031916815260200191505b5085810382528a818151815260200191508051906020019080838360005b838110156102c15780820151818401526020810190506102a6565b50505050905090810190601f1680156102ee5780820380516001836020036101000a031916815260200191505b509c5050505050505050505050505060405180910390f35b34801561031257600080fd5b5061051560048036038101908080359060200190929190803590602001908201803590602001908080601f0160208091040260200160405190810160405280939291908181526020018383808284378201915050505050509192919290803590602001908201803590602001908080601f0160208091040260200160405190810160405280939291908181526020018383808284378201915050505050509192919290803590602001908201803590602001908080601f0160208091040260200160405190810160405280939291908181526020018383808284378201915050505050509192919290803590602001908201803590602001908080601f0160208091040260200160405190810160405280939291908181526020018383808284378201915050505050509192919290803590602001908201803590602001908080601f0160208091040260200160405190810160405280939291908181526020018383808284378201915050505050509192919290803590602001908201803590602001908080601f0160208091040260200160405190810160405280939291908181526020018383808284378201915050505050509192919290803573ffffffffffffffffffffffffffffffffffffffff169060200190929190803573ffffffffffffffffffffffffffffffffffffffff169060200190929190505050610b1f565b005b34801561052357600080fd5b5061054260048036038101908080359060200190929190505050610d14565b604051808273ffffffffffffffffffffffffffffffffffffffff1673ffffffffffffffffffffffffffffffffffffffff16815260200191505060405180910390f35b34801561059057600080fd5b506105c3600480360381019080803590602001909291908035906020019092919080359060200190929190505050610d51565b005b3480156105d157600080fd5b506105f060048036038101908080359060200190929190505050610f4a565b604051808273ffffffffffffffffffffffffffffffffffffffff1673ffffffffffffffffffffffffffffffffffffffff16815260200191505060405180910390f35b60008054905090565b60608060608060008060008061064f610f87565b6000806000600160008e8152602001908152602001600020610120604051908101604052908160008201548152602001600182018054600181600116156101000203166002900480601f0160208091040260200160405190810160405280929190818152602001828054600181600116156101000203166002900480156107175780601f106106ec57610100808354040283529160200191610717565b820191906000526020600020905b8154815290600101906020018083116106fa57829003601f168201915b50505050508152602001600282018054600181600116156101000203166002900480601f0160208091040260200160405190810160405280929190818152602001828054600181600116156101000203166002900480156107b95780601f1061078e576101008083540402835291602001916107b9565b820191906000526020600020905b81548152906001019060200180831161079c57829003601f168201915b50505050508152602001600382018054600181600116156101000203166002900480601f01602080910402602001604051908101604052809291908181526020018280546001816001161561010002031660029004801561085b5780601f106108305761010080835404028352916020019161085b565b820191906000526020600020905b81548152906001019060200180831161083e57829003601f168201915b50505050508152602001600482018054600181600116156101000203166002900480601f0160208091040260200160405190810160405280929190818152602001828054600181600116156101000203166002900480156108fd5780601f106108d2576101008083540402835291602001916108fd565b820191906000526020600020905b8154815290600101906020018083116108e057829003601f168201915b50505050508152602001600582018054600181600116156101000203166002900480601f01602080910402602001604051908101604052809291908181526020018280546001816001161561010002031660029004801561099f5780601f106109745761010080835404028352916020019161099f565b820191906000526020600020905b81548152906001019060200180831161098257829003601f168201915b50505050508152602001600682018054600181600116156101000203166002900480601f016020809104026020016040519081016040528092919081815260200182805460018160011615610100020316600290048015610a415780601f10610a1657610100808354040283529160200191610a41565b820191906000526020600020905b815481529060010190602001808311610a2457829003601f168201915b50505050508152602001600782015481526020016008820154815250509350836000015192506002600084815260200190815260200160002060009054906101000a900473ffffffffffffffffffffffffffffffffffffffff1691506003600084815260200190815260200160002060009054906101000a900473ffffffffffffffffffffffffffffffffffffffff16905083602001518460400151856060015186608001518760e0015188610100015187878797508696508595508494509b509b509b509b509b509b509b509b5050505050919395975091939597565b610b27610f87565b6101206040519081016040528060005481526020018a81526020018981526020018881526020018781526020018681526020018581526020014281526020016000815250905080600160008c8152602001908152602001600020600082015181600001556020820151816001019080519060200190610ba7929190610fd4565b506040820151816002019080519060200190610bc4929190610fd4565b506060820151816003019080519060200190610be1929190610fd4565b506080820151816004019080519060200190610bfe929190610fd4565b5060a0820151816005019080519060200190610c1b929190611054565b5060c0820151816006019080519060200190610c38929190611054565b5060e08201518160070155610100820151816008015590505082600260008054815260200190815260200160002060006101000a81548173ffffffffffffffffffffffffffffffffffffffff021916908373ffffffffffffffffffffffffffffffffffffffff16021790555081600360008054815260200190815260200160002060006101000a81548173ffffffffffffffffffffffffffffffffffffffff021916908373ffffffffffffffffffffffffffffffffffffffff160217905550600080815480929190600101919050555050505050505050505050565b60006002600083815260200190815260200160002060009054906101000a900473ffffffffffffffffffffffffffffffffffffffff169050919050565b600080600080600160008881526020019081526020016000209350836000015492506002600084815260200190815260200160002060009054906101000a900473ffffffffffffffffffffffffffffffffffffffff1691506003600084815260200190815260200160002060009054906101000a900473ffffffffffffffffffffffffffffffffffffffff1690506001851480610dee5750600485145b15610e68578173ffffffffffffffffffffffffffffffffffffffff163373ffffffffffffffffffffffffffffffffffffffff161480610e5857508073ffffffffffffffffffffffffffffffffffffffff163373ffffffffffffffffffffffffffffffffffffffff16145b1515610e6357600080fd5b610eec565b6002851415610eb0578073ffffffffffffffffffffffffffffffffffffffff163373ffffffffffffffffffffffffffffffffffffffff16141515610eab57600080fd5b610eeb565b8173ffffffffffffffffffffffffffffffffffffffff163373ffffffffffffffffffffffffffffffffffffffff16141515610eea57600080fd5b5b5b8584600801541415610f41578484600801819055507fc5cd13c40faf43de7dc6a7bb9248d8ad03bba1c65c1524268922b8e1878353f88786604051808381526020018281526020019250505060405180910390a15b50505050505050565b60006003600083815260200190815260200160002060009054906101000a900473ffffffffffffffffffffffffffffffffffffffff169050919050565b610120604051908101604052806000815260200160608152602001606081526020016060815260200160608152602001606081526020016060815260200160008152602001600081525090565b828054600181600116156101000203166002900490600052602060002090601f016020900481019282601f1061101557805160ff1916838001178555611043565b82800160010185558215611043579182015b82811115611042578251825591602001919060010190611027565b5b50905061105091906110d4565b5090565b828054600181600116156101000203166002900490600052602060002090601f016020900481019282601f1061109557805160ff19168380011785556110c3565b828001600101855582156110c3579182015b828111156110c25782518255916020019190600101906110a7565b5b5090506110d091906110d4565b5090565b6110f691905b808211156110f25760008160009055506001016110da565b5090565b905600a165627a7a72305820cc5ad9e94e484b03898893c195227ad7ae1e21f67323be4e4841858254e9d9ae0029",
  "source": "pragma solidity ^0.4.24;\r\ncontract Trajet {\r\n  struct TrajetSelectionne {\r\n    //id of trajet on chain\r\n    uint id;\r\n    string date;\r\n    string depart;\r\n    string destination;\r\n    string peage;\r\n    bytes signatureDeProprietaire;\r\n    bytes signatureDePassager;\r\n    uint dateAjoute;\r\n    //Etat:\r\n    //0 = le trajet a été signé par prorpiétaire et passger,\r\n    //1 = Le trajet est en cours,\r\n    //2 = le passager a payé le trajet\r\n    //3 = le propriétaire a validé le trajet = ce trajet est terminé\r\n    //4 = le passger ou le propriétaire a signalé un probleme sur le trajet\r\n    uint etat;\r\n  }\r\n  uint trajetCount;\r\n\r\n//id(in local database) => trajet\r\n  mapping (uint => TrajetSelectionne) trajets;\r\n  //TrajetSelectionne[] trajets;\r\n  //id on chain\r\n  mapping (uint => address) proprietaireDeTrajet;\r\n  mapping (uint => address) passagerDeTrajet;\r\n  event EtatOnChange(uint id, uint etat);\r\n\r\n  function Trajet() {\r\n    trajetCount = 0;\r\n  }\r\n\r\n  function getTrajetCount() view returns(uint){\r\n    return trajetCount;\r\n  }\r\n\r\n  function getTrajetById(uint _id) view returns(string, string, string, string, uint, uint, address, address) {\r\n    TrajetSelectionne memory t = trajets[_id];\r\n    uint idTrajet = t.id;\r\n    address proprietaire = proprietaireDeTrajet[idTrajet];\r\n    address passager = passagerDeTrajet[idTrajet];\r\n    return(t.date, t.depart, t.destination, t.peage, t.dateAjoute, t.etat, proprietaire, passager);\r\n  }\r\n\r\n  function getProprietaireByIdOnChain(uint _id) view returns(address proprietaire) {\r\n    proprietaire = proprietaireDeTrajet[_id];\r\n  }\r\n\r\n  function getPassagerByIdOnChain(uint _id) view returns(address passager) {\r\n    passager = passagerDeTrajet[_id];\r\n  }\r\n\r\n  function addTrajet(uint _id, string _date, string _depart, string _destination, string _peage, bytes _signatureDeProprietaire, bytes _signatureDePassager, address _proprietaire, address _passger) {\r\n    TrajetSelectionne memory t = TrajetSelectionne(trajetCount, _date, _depart, _destination, _peage, _signatureDeProprietaire, _signatureDePassager, now, 0);\r\n    trajets[_id] = t;\r\n    proprietaireDeTrajet[trajetCount] = _proprietaire;\r\n    passagerDeTrajet[trajetCount] = _passger;\r\n    trajetCount++;\r\n  }\r\n\r\n  function changerEtat(uint _id, uint _etatActuel, uint _newEtat) {\r\n    TrajetSelectionne storage t = trajets[_id];\r\n    uint idTrajet = t.id;\r\n    address proprietaire = proprietaireDeTrajet[idTrajet];\r\n    address passager = passagerDeTrajet[idTrajet];\r\n    if(_newEtat == 1 || _newEtat == 4){\r\n      require(msg.sender == proprietaire || msg.sender == passager);\r\n    }else if(_newEtat == 2){\r\n      require(msg.sender == passager);\r\n    }else{\r\n      require(msg.sender == proprietaire);\r\n    }\r\n\r\n    if(t.etat == _etatActuel){\r\n      t.etat = _newEtat;\r\n      emit EtatOnChange(_id, _newEtat);\r\n    }\r\n  }\r\n}\r\n",
  "sourcePath": "C:\\Users\\xwang89\\OneDrive - DXC Production\\Dev\\Projet de plateforme de covoiturage\\Developpement\\contracts\\Trajet.sol",
  "compiler": {
    "name": "solc",
    "version": "0.4.24+commit.e67f0147.Emscripten.clang"
  },
  "schemaVersion": "2.0.1",
  "updatedAt": "2018-10-23T10:11:04.297Z"
}